S02B00002E2E5C4170706C69636174696F6E735C755461736B6572426F6F745C4D43555870726573736F5C7560
S10B0000FCFF02208D05000045
S11304000000000000000000FFFFFFFFBE03FFFF2D
S11304100A448A4200D1704711F8013B40BA80B2C5
S11304205840C0F30313584080EA0033580100F4E5
S1130430FF509BB25840ECE710B5431E0A4491426A
S113044000D110BD11F8014B03F8014FF7E700008C
S11304502DE9F041204F214EB8463B68C0F30B050F
S113046020F47F640D4424F00F045BB91C491D4A39
S113047031F8020B22F8020B01331E2BF8D11A4B70
S1130480C8F8003033781B06FCD53378134813F0D2
S1130490300F1CBF30233370144B09221A70144AD6
S11304A0230C1370230A02F8013C124B00221A7029
S11304B0D8F800309847307810F0310307D1B5F5FB
S11304C0805F04F5805005D9A5F58051C5E701206A
S11304D0BDE8F0811846FBE7FC01FF1F0000024065
S11304E0F001FF1F0002FF1F0102FF1F070002406F
S11304F0060002400400024000207047FFF7A8BF36
S11305000B4601461846FFF797BF0000014B024A0D
S11305101A60FEE70CED00E00400FA05D0F800D004
S1130520D0F804F070470000104A114B11499B1A8F
S1130530013B0AD21049114B99420BD1104A114B7D
S113054000219B1A013B0ED2704711F8010B02F8EF
S1130550010BEDE70C4AD21A013AEFD311F8010B63
S113056003F8010BF8E702F8011BEBE7F001FF1FAA
S1130570FC01FF1FD8070000100400001004000055
S1130580FC01FF1F3C02FF1FCE07000008B51C4BF7
S11305904CF220521A804DF628121A804FF4E97258
S11305A023F80E2C03F58F3303F2F313E4221A70AD
S11305B0042203F8012C03F6FF7380221A70A3F6B9
S11305C0FA731A4619788907FCD50E4B4521197020
S11305D04621597013785B06FCD50B4B4FF0927291
S11305E01A600A4B28221A70094A137803F00C0384
S11305F00C2BFAD1FFF798FF00F0C4F8002008BDD7
S11306000E2005400440064044800440004006405B
S1130610064006402DE9F0410568ADF5806D0746BA
S113062000244FF480664FF4805865B90F490622C0
S11306302046FFF7EDFEFB881B1A584258410DF582
S1130640806DBDE8F081B5F5806F38BFAEB240462D
S113065032466946FFF754FF204632466946FFF7A3
S1130660D7FEB0440446AD1BDFE700BFD00700004F
S1130670F0B5114EADF2044D04464FF480654FF4CD
S113068080573CB9224621462046FFF735FF0DF23C
S1130690044DF0BDB4F5806F38BFA5B230462A468C
S11306A06946FFF72DFF38462A466946FFF724FFBF
S11306B02E442F44641BE4E70800030013B504220E
S11306C00DEB02010446FFF71BFF019B5BB15A1CB3
S11306D00CD0C4F55F3404F2FB34A34288BF019408
S11306E0019802B010BD4FF48060FAE70020F8E7EB
S11306F02DE9F0410446ADF5806D4FF44030FFF72D
S1130700DDFF082221464FF44030FFF7F9FEE3886D
S113071025685BBAE380A3885BBA9AB2A38041F2EE
S113072034232DBA9A42256026D16B1EB3F5004FAF
S113073022D2DFF84C804FF480660027B5F5806F35
S113074038BFAEB2404632466946FFF7D9FE384656
S113075032466946FFF75CFEAD1B0746B044EDD157
S113076006490622FFF754FEE3881B1A58425841F3
S11307700DF5806DBDE8F0810020F9E7D007000099
S11307800800030007B56846FFF7B2FFC0B14FF495
S113079000414FF48050FFF7B1FE0098FFF768FF67
S11307A06846FFF737FF48B14FF44030FFF786FF44
S11307B000F108014FF44030FFF7A0FEFFF7A6FE5A
S11107C04FF48050FFF7AAFE03B05DF804FB6F
S10907D0A748B6531124F2
S10F07D88021017001780906FCD57047EF
S9030410E8
