:08000000FCFF02209D0B000033
:100400000000000000000000FFFFFFFFBE01FFFF33
:100410002DE9F74F1646904A904F914D9846136834
:1004200043F4806313608F4B3B602B6813F0404FA5
:100430000446894630D1202C2CD00AD8631EDAB26B
:10044000052A17D8052B15D8DFE803F0BA341CB2FB
:10045000A4B29F2C00F0908017D8752C00F0A880D3
:100460000BD8352C00F09680502C00F0A180332C56
:1004700000F09080002100254FE07A2C00F0988059
:10048000902CF7D10025294619E0C72C00F0908068
:10049000D82CEFD101210EE000232B6001230DF1B8
:1004A000070200210520FFF7B3FF9DF80730DB07A7
:1004B000F4D4C0E700214FF080432B6045466A4BDF
:1004C00044F0004444F480341C603A689003FCD546
:1004D000664A674C106858EA010136D0C9F30740F4
:1004E0002043186039688903FCD51168C9F30721D6
:1004F00041F0004141F48031196039688C03FCD52A
:1005000012685FFA89F1B8F1000F1BD141F0006168
:1005100041F48031196065B3691C0020534B524C83
:10052000DFF858C1DFF850E1DFF85C91DFF840A157
:10053000B8F1000F53D14D4A002940F0838003B039
:10054000BDE8F08F41F00041E2E7314611F8010BC0
:100550002043186038688003FCD51268727842F036
:10056000006242F4803200200E461A600321804669
:10057000D4E740460121D1E73B4B3E4A1A603A6836
:100580009403FCD5394A002112683B4A1A600D4693
:100590000220C3E7344B44F0004444F480341C6030
:1005A0003A689003FCD5314A1268344A1A6061E710
:1005B0002D4B44F0006444F480341C6001215AE760
:1005C000294B2F4A1A603A689103FCD5274A002527
:1005D00012682C4A1A6001212846A8469EE73A680C
:1005E0009203FCD51A68D2B239B332701A68D2B20B
:1005F00072701A68D2B272701A68D2B2327001394F
:100600003A6842F400323A6030B101288CBFC4F835
:1006100000E0C4F800C00138002D89D03278012DE7
:1006200006F1010B8CBF42EA0A0242EA090222608B
:10063000013D08F1FF385E467AE706F8012B08F124
:10064000FF38DDE73B689B03FCD513683B6843F448
:1006500000333B6001396FE700C00A402CC00A40FC
:100660000002FF1F00000A1A34C00A4038C00A40C6
:10067000000001809F000180FF000180FF00010851
:10068000010001800100010800000108F8B51D4BC0
:100690001C6854B91C4E1D4D1E2436F8027B25F8EB
:1006A000027B013CF9D11A4C1C601A4C25782D06AE
:1006B000FCD5257815F0700F1CBF70252570164CE1
:1006C0000728207001D0092810D1144C0D0C25707A
:1006D00007284FEA112504F8015C04F8021C05D133
:1006E0000F491068086051680E4A1160094C1B6878
:1006F00020469847237813F0310F14BF01200020C3
:10070000F8BD00BF0402FF1FF401FF1F1402FF1F0A
:100710001502FF1F000002400700024006000240D1
:10072000080002400C000240054B1B88DB0706D581
:10073000044B4AF202621A804BF280421A807047E0
:10074000002005400C2005400A448A4200D1704731
:1007500011F8013B40BA80B25840C0F3031358402F
:1007600080EA0033580100F4FF509BB25840ECE798
:1007700082B00522013801D202B070470192019B7C
:10078000591E0191002BFAD1F4E7C9B20244034685
:10079000934200D1704703F8011BF9E710B5431EDF
:1007A0000A44914200D110BD11F8014B03F8014FEA
:1007B000F7E7000013B52B4A2B482C4C01234FF4CC
:1007C00010712360136001601360416013608160E9
:1007D0001360274B4FF400721A60264B264A1A60AA
:1007E000264ADA6042F6E060FFF7C2FF012301AA61
:1007F00000210520FFF70CFE9DF80430FF2B03D0ED
:100800009DF80430DB07F1D4032301AA00219F20C7
:10081000FFF7FEFD9DF80430012B07D19DF8053050
:10082000022B03D19DF80630152B15D09DF804300E
:10083000012B0CD19DF80530402B08D19DF80630D6
:10084000143BDBB2032B02D80D4AD35C23B900233F
:100850002360012002B010BD0A4B0B4A1A60002031
:10086000F8E700BF2807904250A0044030069042AD
:100870005CA0044000C00A40000C3F8000000CBE99
:100880005C0E0000F001FF1F700E0000164B70B5EB
:100890001C680CB980251AE06268824222D8A368DD
:1008A00083421FD3257B91B100260E72647B012CFD
:1008B00015D99B1A0133B3FBF4F41319834208D9F9
:1008C0001B1A821A0A604A689A4200D94B6028466D
:1008D00070BD0E7A0136224423440E72EEE71B1AD5
:1008E0000133EEE72468D4E7F001FF1FF0B5254E91
:1008F00085B004460D4601A920460295FFF7C6FFC4
:10090000012805D0022817D04FF0FF3005B0F0BD08
:10091000C4F30B0134400D44002221460920FFF7A7
:10092000B5FE0028F0D14FF4805302930299A942FA
:100930000C4424D26D1ADEE79DF8040000231A4609
:1009400019460544241A0620FFF762FD029BB3F501
:10095000803F10D3BDF80430002B15BF2020D820D5
:100960004FF480574FF48037002301991A46FFF760
:100970004FFD0297DAE720204FF48057F4E700207C
:10098000C4E700BF00F0FFFF2DE9F04F87B0494EEC
:10099000DFF8289101900C4615460492019803A9AE
:1009A000FFF774FF012805D002284BD0012007B0C3
:1009B000BDE8F08FDDF81080002C38D133685A077D
:1009C0002BD023F007033360A2460827C7F10802A3
:1009D000424509EB070B28BF424651465846009254
:1009E000FFF7DCFE009A344B316893449B459244F8
:1009F000A8EB020823D34A460720FFF747FE074625
:100A00000028D3D1336808220833FF2148463360D9
:100A1000FFF7BBFEB8F1000FD8D1049BAB4246D024
:100A2000019AED1A1A4401921C440495B6E7039FFB
:100A300027F00703336007F00707A246C6E70A441A
:100A40003260E7E7DDE903385FFA83FA23F0FF035A
:100A50000093A346B8F1000F06D1434642464146F3
:100A60000420FFF7D5FCD8E7CAF580771FFA88F392
:100A7000BB42D8BF1F464FF000031A4619464FF03D
:100A80000600C8BFBFB2FFF7C3FC00993B465A46F9
:100A90004AEA01010220FFF7BBFC009B03F58073CB
:100AA000A8EB0708BB4400934FF0000AD2E70020F0
:100AB0007DE700BF0802FF1F1402FF1F0C02FF1F8B
:100AC0007FB505460E4614460CB904B070BD01A9A9
:100AD00028460294FFF7DAFE02280FD0802801D0C2
:100AE0000128F2D1029A29463046FFF757FE029BB1
:100AF000A342EAD0E41A1D441E44E5E7029B019993
:100B000032460320FFF784FCF1E7FFF7EFBEFFF763
:100B1000D7BF0000014B024A1A60FEE70CED00E06F
:100B20000400FA054FF0000181F31488D0F800D0DA
:100B3000D0F804F070470000104A114B11499B1A7D
:100B4000013B0AD21049114B99420BD1104A114B6B
:100B500000219B1A013B0ED2704711F8010B02F8DD
:100B6000010BEDE70C4AD21A013AEFD311F8010B51
:100B700003F8010BF8E702F8011BEBE7F001FF1F98
:100B80000002FF1F880E0000100400001004000087
:100B90000002FF1F5402FF1F5C0E00001C4B1D498A
:100BA0001D484CF2205270B51A804DF628121A805A
:100BB0004FF4E97223F80E2C03F58F3303F5FF731E
:100BC00002221A70A3F5DF33A3F5E4734FF4881201
:100BD0001A60124B124D84221A700124002203263F
:100BE0000B7803F00C03082B0AD10E4A137843F05C
:100BF00002031370FFF7A0FF00F000F9002070BDA2
:100C00000132B2F57A7FA4BF04602E70E8E700BF1E
:100C10000E20054006400640C806904200400640AF
:100C200044210740014006402DE9F0410568ADF53B
:100C3000806D074600244FF480664FF4805865B9F4
:100C40000F4906222046FFF77FFDFB881B1A5842FA
:100C500058410DF5806DBDE8F081B5F5806F38BF66
:100C6000AEB2404632466946FFF751FF2046324653
:100C70006946FFF769FDB0440446AD1BDFE700BFDE
:100C8000800E0000F0B5164B164E1A68164BADF2EA
:100C9000044D0446012AC8BF1E464FF480654FF438
:100CA00080573CB9224621462046FFF76DFE0DF2E3
:100CB000044DF0BDB4F5806F0ED2A5B230462A4681
:100CC0006946FFF724FF38462A466946FFF75CFE6F
:100CD0002E442F44641BE4E7FFF726FDEEE700BF38
:100CE0005002FF1F0D0013000800130037B5042247
:100CF00000250DEB020104460195FFF708FF019B5B
:100D00005BB15A1C0CD0C4F5FF2404F2FB74A3425F
:100D100088BF0194019803B030BD4FF48050FAE7CA
:100D20002846F8E7C3885BBAC38083885BBA8380B0
:100D300003681BBA036070472DE9F04F0546ADF21A
:100D4000044D4FF49810FFF7D1FFDFF8A890274F1C
:100D5000DFF8A4A00446CB46D9F80020531C012A92
:100D6000C9F8003006D0022B05DD00200DF2044D3D
:100D7000BDE8F08F1E4F08222946A7F10800FFF7B3
:100D8000C6FE2846FFF7CEFFAA8841F234239A42D6
:100D9000E2D1DBF800202B68012A02D1083C9C42FA
:100DA000E3D15A1EB2F57F2FDFD21C464FF4806686
:100DB0004FF00008B4F5806F38BFA6B2384632460F
:100DC0006946FFF7A4FE404632466946FFF7BCFC81
:100DD000A41B80463744EDD106225146FFF7B4FCF0
:100DE000EB888342B8D10120C0E700BF0D0013009B
:100DF000080013005002FF1F800E000007B5FFF728
:100E0000D9FC08BB6846FFF797FFE8B14FF47F2194
:100E10004FF48050FFF779FE0098FFF733FF6846E4
:100E2000FFF702FF70B10C4B00991B68012BD4BF78
:100E30000D3108314FF49810FFF767FE4FF498100A
:100E4000FFF754FFFFF766FE4FF48050FFF76AFE8E
:0C0E500003B05DF804FB00BF5002FF1F60
:100E5C00010002030000000000000000FFFF0F0073
:100E6C0001000000600E000000001000FFFF8F006A
:0A0E7C0002000000A748B65311243D
:100E8800600E00008021017001780906FCD57047CA
:0400000300000410E5
:00000001FF
