:08808000FCFF02203D8A000014
:1080880008B5054B187000EB8000800000F0C8F9B7
:10809800024B186008BD00BFF401FF1FF801FF1F65
:1080A8002DE9F843058A954228BF154604460F4630
:1080B8000DB3D0F80480C66808EB0503B3424360EB
:1080C8001ED3A6EB08060368B6B2A5EB06094B4417
:1080D800436000F047FB4FB132464146384600F056
:1080E80091FB21684A46B81900F08CFB00F032FB7E
:1080F800238A5B1B238200F035FB2846BDE8F88302
:1081080000F030FB002FF1D02A4641463846EBE715
:108118002DE9F3411A4F01911D469DF8203016466E
:108128003A6803EB83034FEA830802EB83039C68F6
:1081380000F010FB052D0BD0062D12D0042D01994F
:1081480008D0002500F00EFB284602B0BDE8F081FB
:10815800258AF7E73246204602B0BDE8F041FFF72E
:108168009FBF012E02BF3B684344DC6834B12368DB
:10817800258AC4E9013300232382E3E72546E1E7A2
:10818800F801FF1F2DE9F041044616460F4600F09E
:10819800E1FA638A228AE18AD4F808801A4490199D
:1081A8008842C4BF8A1A96B233446382E36808EBF4
:1081B80006059D4228BF2368A56021BF6D1AA560EA
:1081C800ED1A751B2CBFADB2354600F0CBFA2A4626
:1081D8003946404600F016FBAE4204D02068721BB8
:1081E800791900F00FFB00F0B5FA628AA18AB24251
:1081F8000BD1238A0B44334423820023A382638256
:1082080000F0B0FA3046BDE8F0817318921BA382E3
:108218006282F5E770B50B4B1A680B4B1D7800248A
:10822800E3B29D4201D8002007E05668864205D196
:10823800167C8E4202D1581CC0B270BD1432013473
:10824800EEE700BFF801FF1FF401FF1F2DE9F84F0B
:1082580081461046884617469A46FFF7DBFF0146D7
:1082680018B100252846BDE8F88FFFF7D3FF05466B
:108278000028F6D01C4A14266FF0130316FB0033AF
:1082880016681E44B9F800309BB1504600F0C8F893
:108298000446B06068B1B9F800B0584600F0C0F8BC
:1082A8000028DED0C4E90000A0605844E060A4F8CB
:1082B80016B0B9F802309BB1504600F0B1F8044648
:1082C800F06068B1B9F80290484600F0A9F80028B3
:1082D800C7D0C4E90000A0604844E060A4F8169044
:1082E800776086F81080BDE7F801FF1F032807B5FF
:1082F8004FF000000BD113891168ADF80430ADF8C8
:108308000600044A0978182301A8FFF79FFF03B065
:108318005DF804FB1981000073B50A4643780178BB
:108328009942054624D18678124801923146FFF7D2
:1083380071FF044680B16FF01303142010FB043062
:108348000D4B019A1C68EB780444032BA06806D1F6
:10835800C48A008A241AA4B2204602B070BD2946F5
:10836800FFF710FF0421044670B200F089F9F3E723
:108378000024F1E719810000F801FF1F034613B537
:1083880008462BB9114602B0BDE81040FFF7C4BF3C
:10839800FF2B0ED00848013B0068DCB204EB8403D5
:1083A80000EB8303187C00945C680323A04702B0A9
:1083B80010BD0020FBE700BFF801FF1F00F008BA5E
:1083C80008B56C2000F040F918B9BDE8084000F085
:1083D800CFBA08BD13B50E4B00221A800D4B0E4ABA
:1083E80019600E4B147819600278A24209D14288AC
:1083F8001144196055220DF10703994205D902B0BD
:1084080010BD002AFBD00430EEE701F8012BF4E799
:10841800FC01FF1F0002FF1FF001FF1F0402FF1FE6
:10842800F8B50E4F0E4E3C6831880E4A0C44A3072F
:108438001CBF24F003040434126823189A4205462A
:108448000AD902460021204600F02EFA3A68A21AFC
:10845800154435802046F8BD0024FBE70002FF1FC5
:10846800FC01FF1F0402FF1F2DE9F74F584B594F1E
:108478000197904600221A603A60574A92F9002004
:108488008246994691F90040F4B1A24248D10D467E
:108498006C1A15F9016FE4B2002EF9D104EB8400CF
:1084A80080000430FFF7BCFF019B6FEA040CAC446A
:1084B8001860024635461CF901BFBBF1000F2DD1EB
:1084C800C2F800B0002832D1444B00221A6000F0F4
:1084D80063F9204603B0BDE8F08F1031D1F800E011
:1084E800BEF1000FE7D09EF800305B45F5D14B6830
:1084F800C2E900E30B8913810BB10136F6B2B1F87A
:108508000AE08B899381A2F80AE05EEA0303897B7B
:10851800D1731CBF0135EDB21432CCE75146DDE70B
:108528000B4611F9010F0028FAD1991CAAE7EDB101
:1085380005EB45008000043080B2FFF771FF019B16
:10854800C9F800001A685946DC464FF0010E4FF68C
:10855800FF7A136813BB09B1C9F80000D9F80030D5
:1085680005EB4505A3EB8505C9F8005006EB0800A7
:10857800C0B2FFF785FD002EA6D0019B1D68FF261F
:108588002B68002BA0D02B8933B12A460121032068
:10859800FFF7ACFEC8B1A8731435F1E753893BB1B6
:1085A800534508BFA2F80AC053894360012302E07B
:1085B8009389002BF9D147680FB180F809E013B10E
:1085C80040F80C2B01211432C3E7AE73E4E700BF77
:1085D8000C02FF1F0802FF1FF001FF1F1002FF1F00
:1085E800184B37B51C68002523680BB903B030BD9C
:1085F800E37B13F00D0F22D000F0ACF8A38913B978
:10860800E37BDB0716D4237C7BB1ADF800502268EE
:1086180012788DF802206946052200208DF8035053
:108628008DF80430FFF7AAFE2574E37B13F00A03E4
:1086380008BFE37300F096F863682046984714343F
:10864800D2E700BF0802FF1F38B50C4B1C6805466F
:1086580000F080F804F1140252F8140C50B112F82A
:10866800051C11F00D0F06D00378AB4203D000F0C3
:1086780079F8012038BD1432EEE700BF0802FF1F69
:1086880038B5144B1C6823680BB31B7883421FD181
:10869800C1B9114B1D6815B9E17318E00C352B6889
:1086A800002BF9D0A342F9D100F054F8A3891BB1EB
:1086B8000A4A126813446B600023E373BDE838402C
:1086C80000F050B84A07E7D5E37B1B07E4D538BD6F
:1086D8001434D8E70802FF1F0C02FF1F1002FF1F07
:1086E800154A164B11681B68013130B511601146E7
:1086F80023B10C33042553F80C2C02B930BD13F800
:10870800030C98B153F8080C0C68A0420ED1D47B26
:1087180014F0020F05D1240758BFD57313F8044C81
:108728001474928922B1024443F8082C0C33E2E70E
:1087380003F8032CFAE700BF1002FF1F0C02FF1F0B
:108748007047704770477047704770477047704769
:108758007047000072B6024A13680133136070470D
:108768001402FF1F034A1368013B136003B962B682
:10877800704700BF1402FF1F08B5064B4FF0007288
:108788001A60FFF7E7FFFFF7ABFFBDE80840FFF708
:10879800E9BF00BF04ED00E0084B094ADA63094A63
:1087A800094B13605360D2F80C3D43F07043C2F894
:1087B8000C3D064B07221A60704700BF0000FF1FE0
:1087C8008187000014E000E07F8D5B0010E000E08E
:1087D80008B5094B1B88DB070AD5FFF7BBFF074B1A
:1087E8004AF202621A804BF280421A80FFF7BAFFFF
:1087F800034B40221A6008BD002005400C200540AC
:108808000CF10F400E2AF0B508D8431E0A449142D5
:1088180030D011F8014B03F8014FF8E7214BDC8AFF
:1088280024B2002CF1D10446024411F00306A2EB55
:10883800040520D10122A707DA822AD0E7071FD52D
:108848009A82DE809A802A46012619601C619A6005
:108858009E838E189F8B3F06FCD5013A1444294409
:108868008E4219D140F20222DA8004229A829A803A
:108878000022DA82F0BD11F8015B04F8015BD4E74D
:1088880002269E829E8040F2011625F00102DE80BB
:10889800DAE725F00302D7E716F8012B04F8012FD1
:1088A800DEE700BFE09100400E2AF7B5CDB20244E2
:1088B80005D8034693422ED003F8015BFAE71A4B1A
:1088C800DC8A24B2002CF4D10E0245EA0164B6B267
:1088D8000904344301F47F0121430191014611F059
:1088E8000307A2EB010418D124F0030201260DF1BD
:1088F800040CDE82C3F800C019619A609F800A44A4
:108908009E83214491420BD19A8B1206FCD50422F6
:108918009A800022DA8203B0F0BD01F8015BDEE73D
:1089280002F8015BEEE700BFE091004000F580200F
:108938004930002A30B54FEA003016DA22F00042FA
:1089480022F4EE6222F0040203230124DD4309E04D
:10895800214205D003682B401343036021EA040138
:10896800043064000029F3D130BD40F27773ECE79E
:1089780030B4134A134B10681B78DBB230BF116850
:10898800490719D51049097811F0280F14D00F4953
:1089980020240C7044244C7002310C460D78AD062E
:1089A800FCD521784906FCD506490B7006310B78B1
:1089B80003F00C030C2BFAD130BC1060FFF7D2BEC9
:1089C80010ED00E00040064000E00740044006408B
:1089D800104A114B11499B1A013B0AD21049114BFD
:1089E80099420BD1104A114B00219B1A013B0ED220
:1089F800704711F8010B02F8010BEDE70C4AD21A87
:108A0800013AEFD311F8010B03F8010BF8E702F86C
:108A1800011BEBE7F001FF1FF101FF1F108D0000A4
:108A28008880000088800000F401FF1F1802FF1FE3
:108A3800968C000008B56D4B6D491A6842F4805257
:108A48001A600A6822F400620A606A4A6A49116078
:108A58001A686A4942F400721A600A6822F480624D
:108A68000A60674A6749116002F5352202F57962A2
:108A78004CF22050126812F4806F634A4DF62811A8
:108A88001080118069D04FF4C87122F8081C0021A9
:108A980022F80A1C40F2C11122F80E1C5B4A082178
:108AA80011701A6842F400521A6040214FF4A27201
:108AB8000420FFF73BFF564A136843F04003136056
:108AC800536943F040035361524BA4221A70982211
:108AD80003F8012C05331A4619788C07FCD513784E
:108AE800D806FCD4137803F00C03082BFAD14A4BB0
:108AF80020221A7044225A7002331A4619788906BD
:108B0800FCD513785B06FCD5444B4FF08A721A608B
:108B1800434B28221A70434A137803F00C030C2B9A
:108B2800FAD1414A414B1360414ADA60414A42490D
:108B38001A61424A5A619960414A42499A61996365
:108B4800414A42491A63D962414A4249DA63403389
:108B58008B421A6006D00433FAE73F4A4FF4E971B2
:108B680011809BE7FFF734FF3C4A136843F4700316
:108B780013603B4B2A221A70A3F5EC234FF4806252
:108B88001A60384A03F5805300201946043393428B
:108B98000860FAD1344B0122DA83344A0424402194
:108BA8009C809C8211700F2102F8091C40F202225D
:108BB800DA802F4A4FF480731360C2F800312D4ACF
:108BC8006FF07F43136053602B4B1A6805221A60BD
:108BD80000F05CF829492A48FFF7FCFB29492A4894
:108BE8002246FFF741FCFFF7FBFCFCE73880044016
:108BF800D4F00F4080C004400301000814F00F4077
:108C080080900440030100040E20054002D0074074
:108C180000F10F40014006400440064044800440F3
:108C2800004006400640064008ED00E00000FF1F37
:108C3800498700004B870000538700004D870000DC
:108C48004F870000578700005187000055870000B4
:108C580059870000CC01FF1F0020054088ED00E087
:108C680000E0074000940040E09100400C81004083
:108C78001040004014E000E010E000E01802FF1F80
:0E8C8800D68C0000D18C0000E08C00007047FC
:108C980048544D004A50470047494600504E470047
:108CA800435353004A530042494E00545854004914
:108CB800434F00424D50003F3F3F0057646F6700ED
:108CC8006C6F77506F7765720001576C0000010078
:108CD80000C0000000000000C38C0000C583000035
:108CE8000000000004000100C88C0000C9830000D7
:108CF800000000000000010000000000000000006B
:088D0800000000000000000063
:018D10000161
:0400000300008088F1
:00000001FF
