S0190000755461736B657253657269616C426F6F742E7372656338
S1130000F0FF02209F2E000000F002F800F006FA34
S11300100AA090E8000C82448344AAF10107DA455F
S113002001D100F0FBF9AFF2090EBAE80F0013F0AA
S1130030010F18BFFB1A43F00103184740000000EA
S113004060000000103A24BF78C878C1FAD852077B
S113005024BF30C830C144BF04680C60704700003E
S11300600023002400250026103A28BF78C1FBD8BD
S1130070520728BF30C148BF0B6070479C00000086
S1130080F001FF1FC80000004400000064010000EC
S1130090B802FF1F300B000060000000FF000000EA
S11300A0000000000000000000000000000000004C
S11300B0000000000000000000000000000000003C
S11300C0000000000000000000000000000000002C
S11300D0000000000000000000000000000000001C
S11300E0000000000000000000000000000000000C
S11300F000000000000000000000000000000000FC
S113010000000000000000000000000000000000EB
S113011000000000713A0000753A00007F3A0000C8
S11301208F3A0000993A0000A33A00005553425315
S113013000000000000000000001000000000000BA
S113014000000000000000000000000000000000AB
S11301500000000000000000802101700178090601
S1070160FCD570470F
S11304000000000000000000FFFFFFFFBC01FFFF31
S11304101FB503F0E6FA1FBD10B510BD03F0A8FA2E
S11304201146FFF7F5FF02F07FFC03F0C6FA03B4B0
S1130430FFF7F2FF03BC03F0CDFA000010B5FC4C4B
S1130440607000EB8000800000F0FBFB606010BD7A
S113045030B5F74C0022636864780BE05D68854230
S113046005D11D7C8D4202D1521CD0B230BD521C2C
S1130470D2B21433A242F1D3002030BD2DE9F047AB
S113048005469946174688461046FFF7E1FF10B126
S11304900020BDE8F08700210846FFF7D9FF0600D9
S11304A021D0E34906EB8600496801EB80042888E3
S11304B0143C48B1484600F0C4FBA06020B1298830
S11304C000F095FB0028E4D0688848B1484600F065
S11304D0B8FBE06020B1698800F089FB0028D8D01F
S11304E0676084F810803046D3E710B5034603E014
S11304F011F8014B00F8014B521EF9D2184610BDF9
S11305002DE9F0470E4641680446008A15468846A0
S1130510A84200D2054635B329446160E0688142AF
S113052014D3A0EB080087B22168A5EB070901EBFF
S11305300900606002F0D6FC86B13A464146304676
S1130540FFF7D3FFF0194A46216805E002F0CAFC20
S113055026B12A4641463046FFF7C7FF02F0BCFCED
S1130560208A401B208202F0BDFC284691E72DE939
S1130570F047AF4F0898984600EB8006786891469C
S113058000EB86008A460025846802F0A5FC4046FC
S1130590B8F1040F07D0052803D0B8F1060F16D11F
S11305A007E0258A13E04A4651462046BDE8F04755
S11305B0A6E7B9F1010F03D1786800EB8600C4689F
S11305C02CB12068A0606060258A0020208202F09F
S11305D089FC28465DE708B5032803D005280FD019
S11305E0002008BD1089ADF800000020ADF802001D
S11305F0106818238F4A01786846FFF73FFF08BD4B
S1130600BDE80840104600F089BE38B51546FF28FD
S11306100FD0401EC0B200EB800200908448022339
S1130620406800EB8202107C54680A462946A047C1
S113063038BD002038BD2DE9F041154688460446F2
S113064002F04AFC228A608A11184B19E18A8B4213
S113065002D98A1A121A95B228446082A7682E46D3
S11306607819A060E268904205D3401AA0602188FE
S1130670401A281A86B202F035FC32464146384602
S1130680FFF733FFB54205D0AA1B08EB060120682B
S1130690FFF72BFF02F020FC608AA84207D1208AD2
S11306A0A18A0844284420820020A08203E0A18A71
S11306B0401B2944A182608202F014FC2846BDE854
S11306C0F081F8B55A4D70B1FF2837D0401EC0B242
S11306D000906B6800EB800003EB8003187C5C687F
S11306E00323A047F8BD16460C460A7849785148BA
S11306F04FF0000C8A421AD194F90270F9B2FFF754
S1130700A7FEA0B1696800EB800001EB8000E178EE
S113071050F80C0C03290CD032462146FFF78BFF0E
S113072004460421384600F0C3FB2046F8BD604669
S1130730F8BDC18A008A081A80B2F8BD0020F8BD4D
S113074038B5401EC0B200EB8003009038484068C2
S113075000EB8303187C5C680423A04738BD38B5DC
S1130760401EC0B200EB80010090314805230022F6
S1130770406800EB8101087C4C681146A04738BDF5
S113078038B5401E1446C0B20A4600EB8001009002
S113079027480723406800EB8101087C4D68214607
S11307A0A84738BD38B5401EC0B200EB80020090A7
S11307B01F48406800EB82030A46187C5C680623E5
S11307C00021A04738BDFF2807D0194900EB80005D
S11307D0496801EB800010F8040C70471CB5002830
S11307E010D000228DF800208DF801208DF8020031
S11307F001208DF803008DF80410052269460020BD
S1130800FFF75FFF1CBD1CB500238DF800308DF889
S113081001308DF8020001208DF804008DF80310DA
S11308208DF80520062269461846FFF74AFF1CBDCD
S1130830F001FF1F6F05000030B40C460022034690
S113084001E0521C92B213F8011B0029F9D11AB12C
S11308500146204630BC34E730BC00207047EB49E9
S11308600978E9E7F0B50446E94B002510468A0605
S11308704FF0200703D500F8017B21F008014E0753
S11308804FF00A0C4FF0300224D5002C22DA6442D7
S11308902D2600F8016B1DE0B3FBFCF31DB9012B01
S11308A008D14E0602D500F8012B03E00E0701D54E
S11308B000F8017BA342EFD803B10125B4FBF3F6A2
S11308C006F0FF0E0EFB1344B3FBFCF30EF13006EF
S11308D000F8016B002CEDD104E000BFB3FBFCF386
S11308E000F8012B13B1002DF8D100E055B90B0726
S11308F002D500F8017B05E04B0601D500F8012B79
S113090000F8012B0A0604D50D2200F8012B00F88B
S113091001CBC90601D400210170F0BD1FB56A46A0
S1130920FFF7A0FF6846FFF79AFF1FBD70B50546A5
S113093010F0070000D10820B5EEC00AF2EE040A58
S1130940F1EE10FA10EE102A2BD245F00401B2F1A8
S11309504F4F02D34FF0004020E0BDEEC01A11EE1D
S1130960102A01EE102AB8EEC11A30EE010A01E095
S113097020EE200A401EFBD2BCEEC00A10EE104A44
S11309800CB121F080011046FFF7C8FF002C20D0E5
S1130990A0A0FFF764FF25F06C012046BDE870407D
S11309A0BCE725F00401B2F19F4F02DB4FF0FF30AA
S11309B0F4E7BCEEC01A11EE102A01EE102AB8EECC
S11309C0411A30EE410A01E020EE200A401EFBD21B
S11309D0D2E770BD70B5002306461D461C46880646
S11309E002D5202002F8010B080705D5302002F8B3
S11309F0010B782002F8010BC80600D40123480635
S1130A0000D50125080600D5012401F007000428BB
S1130A1000D9042041000DE0880026FA00F000F01F
S1130A200F003030392803D90DB1C01D00E0273044
S1130A3002F8010B491EC9B2EED22CB10D2002F806
S1130A40010B0A2002F8010B0BB1002010701046B4
S1130A5070BD1FB56A46FFF7BDFF6846FFF7FFFE8E
S1130A601FBD002100E0401C0278202AFBD009E0D1
S1130A70303A0901D2B2401C092A02D9D21F02F02D
S1130A800F02114390F90020302AF1DA084670472A
S1130A9010B50023194607E012B12D2A02D002E056
S1130AA0002010BD0123401C90F90020A2F1300465
S1130AB00A2CF1D205E04C0004EBC1013039114499
S1130AC0401C90F90020A2F13004092CF3D913B191
S1130AD0C843401C10BD084610BDF0B504460027AD
S1130AE00126FFF7D5FF05009FED4B0A07D12078BB
S1130AF02D2804D10127C0B2641C2E2811D02078DF
S1130B000028F8D100EE905A002DF8EEE00A27DA1A
S1130B1030EE600AF0BD302807D106EB86004600AF
S1130B20641C94F900000028F5D12046FFF7B0FFBB
S1130B3000EE100AF8EE400A03E000BF06EB860060
S1130B40460014F8010B0028F8D100EE106A002FBB
S1130B50B8EE401A80EE810AD4D0B1EE400AF0BD5E
S1130B6030EE200AF0BD10B5034601E000F8011B89
S1130B70521EFBD2184610BD10B507E010F8013B19
S1130B8011F8014BA34201D0012010BD521EF5D231
S1130B90002010BD10B54FF0FF330DE091F9004077
S1130BA0A24207D090F9000091F9001088420ADDB2
S1130BB0012010BD401C491C90F90020002AEDD1F1
S1130BC008780028F5D0184610BD0A7800F8012BE3
S1130BD011F8012B002AF8D1401E7047014600206D
S1130BE000E0401C11F8012B002AFAD1704770B5BF
S1130BF004460D46084600F024F8002805D020607D
S1130C0041196060C4E90201E58270BDF001FF1F73
S1130C1000CA9A3B2E000000000000002E4A10B5C6
S1130C20002313802D4B516091601C7802E0002B4F
S1130C3006D0001D0378A342F9D14088084490608F
S1130C4010BD70B5244D0646298868684418A0076D
S1130C5002D024F00304241DA968A019884201D3FA
S1130C60002070BD324600212046FFF77CFFA88893
S1130C70201A30442880204670BD70B5164D0646B3
S1130C802A8868688418481E044201D084430C44AE
S1130C90A968A019884201D3002070BD3246002102
S1130CA02046FFF760FFA888201A30442880204699
S1130CB070BD00210180084670470748018980887B
S1130CC0081A80B270470448018982880088891A0A
S1130CD0081A80B270470000F801FF1F8D02FF1F41
S1130CE02DE9F74F0025DFF86C838346DA48C8F80E
S1130CF00450C8F808502E462F46A9460C464FF01B
S1130D00040A00783FE0C9B2814202D036E06D1C8B
S1130D10EDB214F8010F0028F9D105EB85010AEBB7
S1130D208100FFF78EFF621B521EC8F808001EE008
S1130D30594619E094F900409C4214D14B68436031
S1130D400B6803600B8903810BB17F1CFFB24C89D4
S1130D5044818B898381897BC17304B90BB1761C6F
S1130D60F6B2143003E010310C68002CE2D112F911
S1130D70013F002BDCD1C0F8009007E014F8011FFC
S1130D800029FBD1641C21780029BCD1D8F80800C3
S1130D904446A0B356B306EB46010AEB8100FFF7C5
S1130DA050FF60604FF6FF784FF0010CA16815E02A
S1130DB04B89002233B1434501D1A1F80A904A89F5
S1130DC0426002E08B890BB14360012243680BB19E
S1130DD080F809C00AB140F80C1B14310A68002AD3
S1130DE0E6D1A6EB860100EB8100606002983844EE
S1130DF0C0B2FFF723FB17B1FF27A6680BE00DE095
S1130E00308938B1324601210320FFF7E4FBB07387
S1130E1000B9B773143630680028F1D1C4F80090D3
S1130E2002F08AF82846BDE8FE8F7CB58948002583
S1130E3084682AE0E07B10F00D0F25D002F04CF816
S1130E40A08910B9E07BC00719D1207C90B18DF83E
S1130E5000508DF8015020680522694600788DF80D
S1130E6002008DF80350207C8DF804000020FFF769
S1130E7028FC2574E07B10F00A0F00D1E57302F022
S1130E8031F8616820468847143420680028D1D19D
S1130E907CBD7049896806E092F90020824201D144
S1130EA0C87B704714310A68002AF5D18020704746
S1130EB070B5684EB46822E092F9002082421DD1D8
S1130EC0A9B9756885B912E0A0420CD102F004F802
S1130ED0A08910B13168084468600020E073BDE85F
S1130EE0704001F0FFBF0C3528680028ECD148079A
S1130EF002D5E07B000700D4E17370BD143422688E
S1130F00002AD9D170BD2DE9F041524F90460E46CA
S1130F107C68002C27D0BD6828E000BF91F9001040
S1130F2081421DD021E0A84219D101F0D5FFE87B10
S1130F3020F00200E8735FEA0800207201D026B1B5
S1130F4004E0AE8116B9002004E00126386830447C
S1130F50606001206072BDE8F04101F0C3BF0C3451
S1130F6020680028DFD1BDE8F08114352968002904
S1130F70D4D1F8E770B5374D6C68F4B1A96819E0BD
S1130F8092F90020824210D013E088420CD101F083
S1130F90A3FF607A18B160682968441A00E000244D
S1130FA001F0A0FF204670BD0C3420680028ECD16D
S1130FB003E014310A68002AE2D1002070BD70B544
S1130FC024494D68002D19D08C6819E091F900105E
S1130FD0814210D013E0A0420CD101F07DFF00202B
S1130FE028726872E07B40F00200E073BDE8704054
S1130FF001F078BF0C3528680028ECD170BD14349A
S113100021680029E2D170BD70B51249D1E90020F0
S1131010521C0A6000281BD0042300240268002A02
S113102016D0457A95B145680E68B5420ED1D57B88
S1131030AE0704D42D0700D4D373057A15749289AE
S11310401AB145682A44426000E044720C30E5E776
S113105070BD00000402FF1F8D02FF1F01F07DBF61
S11310602DE9F0470D469946074603EB430101EB92
S1131070C900FE49496801EB8004608B10B100206F
S1131080BDE8F087A283954200D915466583208B7D
S1131090A84201D2E08200E0E5820898E68A6FF077
S11310A07C48C06808EA064242F08002076008985B
S11310B081684068496811430160089881684A68FA
S11310C082F040024A608068816881F0400181605A
S11310D03146E06800F0E4FD676031E0E06820B18B
S11310E0806990F8280002282ED208A9484602F008
S11310F0BAF948BBA81B3744268B85B2AE4200D34D
S11311002E46089808EA064242F08002C06807604A
S113111008988168406849681143016008988168AB
S11311204A6882F040024A608068816881F0400128
S113113081603146E06800F0B3FDE08A3044E0822B
S1131140608BE18A8842C9D8608B99E770B58AB010
S1131150064601A80D460890144608A9304602F038
S113116082F910B100200AB070BDA86910F8261FDA
S113117041F040010170A9896868091A89B28C425A
S113118000D22146089A009233460A46FFF768FFC8
S1131190E9E72DE9F04389B01F4614460E46804620
S11311A00025DDF8409001F097FEB149BF1E09EB20
S11311B08900052F20D2DFE807F0033D7C37A1002A
S11311C062070DD5096801EB8000C168886990F851
S11311D02600400610D408684860CA8A0A8245E09E
S11311E022070AD5096801EB8000C068806910F8FD
S11311F0261F21F0400101708CE00968F20401EB24
S1131200800001D5C06800E08068610608D5816966
S113121091F82620D20703D006F07F0281F824201B
S1131220806990F8265075E0096801EB80008068B9
S1131230058A6FE0096801EB8000C768DFB1B8690F
S113124090F82600C00765D066B301F04BFE224635
S113125031463846FFF7EFF9054601F03DFEB8691F
S113126090F82600400655D42A4639464046FFF7F2
S11312706DFF05464EE001A8089008A9404602F01B
S1131280F2F8D0BB2246B8F1000F03D1774880684A
S113129000B1C28808980090434621463046FFF7C3
S11312A0DFFEE6E7F88A398A401AA04232DB85B2CB
S11312B030E00968224601EB800031468568284603
S11312C0FFF71EF90446A86990F82600400710D5D8
S11312D001F002FEA86910F8261F21F00401017034
S11312E0A86990F8250002F079F90028F8D001F0F7
S11312F0F9FD204609B0BDE8F0830BE0096801EB75
S113130080000CB1C06800E08068016881604160C1
S11313100021018201F0E6FD2846EBE72DE9F041CA
S11313200546AFF29112514E817B1C23001D746857
S1131330FFF7A4F80746A87BD8B100EB400101EB06
S1131340C00004EB8004A8892083A87AC00601D5D4
S113135020206084A87A400603D5608C40F0800089
S11313606084A87A000616D5608C40F04000608442
S113137011E0687C2C21401C10FB01F0FFF761FC9C
S11313800446706008202083A87C84F82400294641
S1131390002002F057F9364A07EB8701106800EB8A
S11313A0810050F8080CE06010B184612889A082A3
S11313B0A87B84F82500A87B88B1E87B78B1638C8E
S11313C000EB4004766804EBC00406EB840484F864
S11313D02500A87B84F82700A889208363841068EB
S11313E000EB810050F80C0CA06018B18461A87C5B
S11313F084F82400286820603846BDE8F08110B5E0
S1131400CB0709D010F8013B138010F8014B43EAD5
S1131410042322F8023B00E0801C8B0709D510F856
S1131420013B138010F8014B43EA042322F8023BEA
S113143000E0801C490705D501781180407841EA15
S11314400020108010BD7CB50446806990F824000B
S113145000281FD0208A88421CD800258DF800500F
S11314608DF80150A06990F8240003E01002FF1FDA
S1131470F401FF1F8DF8020001208DF80300DD2028
S11314808DF80400052269462846FFF71AF9A06979
S113149080F824507CBDF8B585780B460446027963
S11314A005F07F01C07805F08005284301EB410574
S11314B005EBC105FE4E766806EB85056679009559
S11314C042EA062202F000F8E07828B115F8220F6B
S11314D040F001002871F8BD112085F82600F8BD00
S11314E0F8B58078F24A00F07F0101EB41005268C0
S11314F000EBC10002EB80040026E5683346324667
S1131500FF20009601F0E0FF84F82660668384F8EB
S113151028601DB12E822868A8606860A068002831
S113152003D00682016881604160F8BD2DE9F84F5F
S11315300646994693468A4601250024684601F0EA
S113154036FA0278BDF80010891A8FB2ADF800702F
S11315504178022904D0042913D0052950D124E06C
S11315602EB100214379B34203D1012302E00121CA
S1131570F8E70023194302D00124002540E00024A9
S11315803EE0A4B3BAF1FF0F02D08378534537D1BC
S1131590BBF1FF0F02D0C3785B4504D10224B9F13B
S11315A0000F32D02CE003242AE004B3B9F1000187
S11315B026D0022C02D000239E461AE00123FBE72A
S11315C090F802C093F802800CF07F0C08F07F08BA
S11315D0C4450DD1BEF1000F12D193F804C05B795C
S11315E04CEA0323B1F804C09C4509D28B8007E080
S11315F008310B68002BE3D1BEF1000F00D0086066
S11316001044002F9DD115B10020BDE8F88F484645
S1131610FBE7F0B5A1B00F46064600248022214620
S11316206846FFF7A0FA6B460022FF213846FFF711
S11316307DFF6D46C0B9012021B0F0BDCEB19C49FB
S11316408078012E00F07F00496800EB400202EB35
S1131650C00001EB800010F8261F14D021F0020115
S113166041F001010170641C55F834000028E5D1F3
S1131670E2E72FB105EBC4018988FFF70CFFF2E71D
S1131680FFF72EFFEFE721F0010141F00201E9E746
S11316902DE9F0410E46864900EB400404EBC000FE
S11316A04968154601EB8004069A94F82200000666
S11316B017D5A168238B886818448860CF688B8A03
S11316C0B84203D308688860002000E0581C888270
S11316D03AB1B4F818C088686044874200D80868F2
S11316E0106027682FB11A4629463046B8470728A4
S11316F00ED1A06800280BD094F9240010B1042165
S1131700FFF7D6FB94F82210A068090601D5002043
S113171073E694F826104A0701D501206DE6C28AC3
S1131720038AD21AAA4204DB2A463146FEF783FF13
S1131730EDE741F0040084F82600EEE72DE9F043DC
S11317405B4DA1B0914606460F4602280AD00024FC
S1131750802221466846FFF706FAE8464EB1012E7C
S113176028D115E0287821B00023BDE8F0430122F8
S1131770DCE64346FF2239462878FFF7D7FE02E02D
S1131780FFF7AEFE641C58F834000028F8D111E0CD
S113179043464A4639462878FFF7C8FE30B9012047
S11317A021B0A8E50021FFF776FE641C58F8340048
S11317B00028F7D10020F3E72DE9FC473C4E1C46F6
S11317C0914677684FF00008072840D2DFE800F020
S11317D0FDFCFB04FAF9F80009EB490101EBC9002F
S11317E007EB8006708BF56898B1F18A81425ED36D
S11317F0002D77D0298A002974D0A86900F05DFAF9
S1131800298A081A82B22A82A969002791F8280035
S113181023E0002D1BD0288A98B1E96868688842C3
S113182002D3E98A401A6860A8896E68801B81B275
S1131830288A884200D2014600934B460A46304625
S113184068E0A86910F8261F21F0400101700DE23C
S113185001EB4003DB8B3B449FB2401EF8D2BA42FB
S113186041D152B191F82200400655D5A6F81A800C
S1131870288AE98A0844288248E03021484600F052
S113188030FAD8B1708B318BB0FBF1F201FB12004E
S1131890A0B9A0686168406840F088000860A0684A
S11318A0416881F040014160A068816802E05AE02B
S11318B01002FF1F81F0400101278160718B68686D
S11318C008446860E968884202D3E98A401A68607B
S11318D0A6F81A8007BBA86910F8261F21F040015A
S11318E0017019E01EE0718B686808446860E9685B
S11318F0884202D3EB8AC01A6860A888081A81B2A9
S1131900D01B884200DA81B2A6F81A8000944B46B4
S11319100A466868FFF7A4FBA869818A2846FFF78E
S113192092FDA3E1318BB0FBF1F201FB1201B9B9D5
S1131930B18B814204D12021484600F0D2F978B11C
S1131940A0686168406840F088000860A068416849
S113195081F040014160A068816881F040018160AC
S1131960A6F81A8082E1401A87B2308BB84200D8B8
S1131970074655B1A86900F0A0F9298A081A2882F7
S1131980A869818A2846FFF75EFDF18A70680844D9
S1131990E1680860A0686FF07C4101EA0741406893
S11319A041F08001084361680860A068416881F0E3
S11319B040014160A068816881F04001816005E0D8
S11319C04FE14AE13DE12DE12EE107E039462846A9
S11319D000F066F9F08A3844F08247E10A78481C3E
S11319E0A7F81A8032F0800112D001297AD0022996
S11319F079D03B68002B55D0110601D5411EB1604A
S1131A000022A18A401E9847C6F80880BDE8FC87DA
S1131A1010F8011B05460A2975D2DFE801F06B7442
S1131A20747474380574653B681C297810F8032BAA
S1131A3041EA022110F8012B037842EA032501F45C
S1131A407F42B2F5807F0CD0B2F5007F0DD0B2F5A5
S1131A50407F0ED03B68002B24D00022A18A801F37
S1131A60A3E001A800F09EFF09E001A800F09FFF99
S1131A7005E0C8B201A900F0A5FF002812D0002398
S1131A802A460094BDF80410FFF7EAFAEEE028783D
S1131A90987562E0297831700020FFF7BAFD10B123
S1131AA086F800808EE07068FE24294690F9246050
S1131AB001223EB30DF10600FEF717FD8DF80080FC
S1131AC08DF801808DF8026075208DF803000220E6
S1131AD08DF804008DF80540072269460020FEF7C2
S1131AE0F0FD3AE015E056E0009300230122114690
S1131AF08348C9E700930222814800231146801CD1
S1131B00C2E700E029E03B68E3B30022A18AA81EF3
S1131B104BE07B4910F8012B0978A2B30A2A1ED0A6
S1131B200B2A04D03B686BB3A18A00223CE049B382
S1131B306A460321FFF763FCBDF80200FF22C1B22D
S1131B400020FFF7FBFDBDF80000C2B2BDF80200A3
S1131B50C1B20120FFF7F2FDA0B9032056E789B115
S1131B6001AA0221FFF74BFCBDF804000022C1B218
S1131B700220FFF7E3FD28B1012200231146C01C17
S1131B80009481E71EE0FFE7E1B100930023022205
S1131B9011465C4878E710F8015B55B1012D08D077
S1131BA03B687BB103220821801E02B0BDE8F047E8
S1131BB0184701AA0221FFF722FC307820B9BDF8AA
S1131BC0040008B1042021E7BDF80410012D01F040
S1131BD01F0000EB400202EBC00007EB80000AD0BC
S1131BE090F8260000940007D0D50222454800232F
S1131BF01146801C48E790F82620130736D522F0BA
S1131C00080280F826207068006828B3C8B28DF8EE
S1131C10000001F032FA706804220021036868466B
S1131C209847F3E6A08A20B1206900909A8A01239C
S1131C3003E002230022CDF800804846FFF728FD88
S1131C40E4E6987D20B197F92400CC21FEF7C6FD87
S1131C5000210846FFF7DDFC08E097F92400CB21BA
S1131C6002E097F92400CA21FEF7B8FD0020CDE672
S1131C7000EB400202EBC000214A526802EB8000F4
S1131C8010F8262F0A43027070471D4900EB4002EA
S1131C9002EBC000496801EB800090F82700704710
S1131CA0002809D082691E2392F8280003EB400320
S1131CB0401C82F82800D152704710B50121C28B14
S1131CC005E000BF00EB4103491CDC8B9C8390F8CA
S1131CD028308B42F6DCD9B2491E80F82810104611
S1131CE010BD00EB400202EBC000054A526802EB53
S1131CF0800090F82600084000D0012070470000C2
S1131D001002FF1FEC39000030B50C78651C0D7013
S1131D105CB1012C15D00025022C1DD0032C03D15D
S1131D200D70D9B21180018030BD4FF6FF7101EA08
S1131D30033103F4706421431488C3F30313214370
S1131D4008E0F02101EA131141EA03241188C3F3E6
S1131D5003232143138006E06FF4702101EA031387
S1131D6011881580194320F8021B30BD052102E0BB
S1131D70491E0ED02030C27A202AF9D1017FC27FB9
S1131D8001EB0261827F407F120402EB00200844D1
S1131D907047012070472DE9F84F0746C0EBC70094
S1131DA0FF4900EB400001EB800614464FF400723B
S1131DB000217069FEF7D7FE00254FF0FF0B4FF0AE
S1131DC0010A4FF002081CB3C7EBC700F44900EB4B
S1131DD0400001EB80004930DFF8C8930090012CEB
S1131DE03AD0022C38D0B068A1F2026101EB87210D
S1131DF0A0427DD174694FF400722046FEF775FB52
S1131E000B2220460099FEF770FB0820E07225E1C2
S1131E1070690C2180F8BF8180F8C0110B2180F813
S1131E20C211382180F8C311F82180F8C411B821F7
S1131E3080F8C51180F8C6A180F8CAB1072180F8DE
S1131E40CB1180F8CC5180F8CD51552180F8FE118A
S1131E50AA2180F8FF1101E17469EB20D2A120705E
S1131E609020A070E01CFEF7B0FE4FF400703085A7
S1131E70E57284F80C803F21217684F81AB0F821A9
S1131E8061753C21617084F80E8084F810A084F898
S1131E901280E5740820207586F82B001020062196
S1131EA0B1FBF0F707B90127A775390AE175F81CEA
S1131EB0B06004F124050822BEA104F13600FEF747
S1131EC014FBC9F83470B0682030F060B068C01BEF
S1131ED0C6E9077096F82B106173802028702920BA
S1131EE0A87085F803A085F804800320687100E0D9
S1131EF012E00420A8710B22B1A1E81DFEF7F5FA47
S1131F000B22E91D0098FEF7F0FA552084F8FE0133
S1131F10AA2084F8FF01A1E0401CA04205D14FF49F
S1131F20007201F50071706996E0306AA0427CD8B5
S1131F30F1690144A14278D9A04204D10422A34901
S1131F407069FEF7D2FA9748383050F82700022813
S1131F506AD1306A776984420ED14FF40040FFF7AA
S1131F6005FF0146C9F83C10042189F80580A9F849
S1131F700A103F1DC9F840A04FEA090496F82B0047
S1131F80E16BB1EB402F17D3706900F50070B842D4
S1131F9064D9844A63890832D11E3846FFF7B4FEF7
S1131FA007466089401C608196F82B00E16B404233
S1131FB001EB4020E063E1E7206C00284FD070691A
S1131FC000F50070B84249D9607940B1012812D0B7
S1131FD040F6FF7302281BD0032821D11FE060893B
S1131FE0704A40F00F030832D11E3846FFF78CFECA
S1131FF0A0F800B014E060896A4A40F0FF03083298
S1132000D11E3846FFF780FE0F21018008E00CE066
S1132010644A38460832D11EFFF776FE00E03B8062
S1132020256425816581657118E0F068A04215D8A2
S1132030211A5C48491E283050F82700803000EBF4
S113204041215848A1F56061303050F8270088429A
S113205004D94FF400727069FEF747FA0020BDE816
S1132060F88F2DE9F0414F4C002211466078FEF7BD
S113207028FB05464FF4007604F12407606916E056
S11320800021E0782269FFF786FE68B9E0783246DD
S113209057F8200041696078FEF713FB2069A5F525
S11320A00075401CADB220616069401E606110B1D2
S11320B0B542E5D209E00D2D07D36078BDE8F041C3
S11320C038490D226431FEF7FCBA6078BDE8F0416E
S11320D041F275024021FEF798BA2DE9F0470C460B
S11320E03B498046924601EB88252FE00F282CD0EF
S11320F020282AD0800728D52878E52825D0687D8F
S1132100297D000640EA0140E97E254A40EA012093
S1132110A97E56460143C8EBC80000EB400002EB21
S1132120800740F6FF79C800FA68103810448642E8
S113213005D30830864202D20220BDE8F08740462B
S113214000F098FC01464845EDD12035E87A002896
S1132150CCD120787B2809D194F84A007D2805D178
S1132160607818B9E07808B9607918B1207A4D28F8
S113217034D101E00320E0E7607A61282ED1A07A0F
S113218063282BD194F85400412827D194F85500A2
S1132190542823D194F8560054281FD11AE0000083
S11321A0CC08FF1F1C02FF1F4D53444F53352E30E4
S11321B0000000004641543132202020000000007D
S11321C055504C4F41445F4449534B00F93900008A
S11321D0CA02FF1F94F85700522812D0204600F07C
S11321E03EFCFA490844B0F5802F0CD2201D00F0C3
S11321F036FCF749A0F500408138884203D8012015
S11322009BE7042099E7002097E72DE9F74F044660
S1132210C0EBC400EF4900EB400001EB8007DFF89E
S1132220B8B3F86816464FF00009ABF11808B0428D
S11322305CD85BF82410012957DC08F1080AE74A46
S11322405AF82410301A02EB40200D18A8F11E0190
S11322508035085D10B1012803D015E048F82490BA
S11322600BE058F8241041B148F824903246204637
S11322700199FFF732FF012802D00020BDE8FE8F4C
S1132280D548022136380155D3480C30011D50F889
S1132290242002B108E05AF82420AA1A803A41F80E
S11322A02420012240F8242051F82400CA49281A85
S11322B0083951F8241081420ED95AF8241080317B
S11322C0814209D8C0F504324FF400718A4200D922
S11322D00A46019901F0C6FA201DC2B21E217520DA
S11322E0FEF711FE01204BF8240031E0B868B0423B
S11322F002D0411CB1422BD1B949B04201EB842533
S113230001D1284601E005F500704FF400720199EF
S1132310FEF7EBF85BF82400022819D128460021C7
S11323200278E52AC27A0AD0202A03D02030491C38
S11323301029F5D32846FFF719FD30B108E0202A0B
S1132340F4D1204600F07AFB88E7204600F076FBC3
S1132350386AB04282D19F484FF40072543000EB87
S113236044200199FEF7C1F878E770B59A4D044608
S1132370383DA86988BB042221469A48FEF7FCFB35
S113238060BB607B05F12401E87051F82050002106
S113239000F025FB10B3A07B401E0F2852D8207BF1
S11323A04FF0F00201068E48E17BA0F112004FF0DD
S11323B002034FF03A0624D523291DD006DC032955
S11323C02BD0122929D01A292CD108E0252924D070
S11323D0282911D0A82925D10EE01EE032E0207C66
S11323E004F10F054009002100F0F9FAD0B1A878F2
S11323F0C043800611D015E0297E11F0880F0CD15E
S11324000DE01E2909D003DC39B11B290AD104E0EF
S11324102A29F1D0AA2905D1EEE7072070BD027060
S1132420837006736C4D04222C35211D281DFEF784
S11324305CF8042204F1080105F10800FEF755F8E0
S113244001202873042070BD2DE9F041624C002660
S11324500D46383C7AB1022A3AD0042A30D10078A9
S1132460822805D10D2204F164016078FEF729F970
S11324700320BDE8F081037823F08001212913D1E2
S11324808179C2791B0641EA0227E7800CD543789B
S1132490FE2B02D0FF2B07D10EE0837823B9C0783E
S11324A010B9012900D10AB10420E2E74D49012203
S11324B0491E2078FEF705F9082D0FD9083DADB265
S11324C0E08858B100212171854203D3E180CFE730
S11324D00020CEE7401BE0800620CAE73046C8E76C
S11324E030B50B68CA888988A3F50043803B0AB9D4
S11324F04FF4C04209B944F265718275140AC47577
S1132500017681740D0A4576C5748273C4730174AF
S113251045740377190A4177190C8177190EC1772D
S113252030BD2DE9F04FDFF8B080A9B0807BA8F171
S11325303808209098F80000DFF89C904FF4007B56
S113254008F1240A002840D108F128014FF4004082
S11325500E1D0860306008314FF40430086001201B
S11325601F4F4546C8F80C00E878802207EB80210D
S113257056F8200001F07DF9E878802107EB8020EF
S113258000F0E0FAE978134A49F821000846C1EB63
S1132590C00101EB410102EB81044FF40061A4F896
S11325A028B02161A0212183A2F50071616101227B
S11325B00021FFF7F0FBE8784AF82040401C10F0B7
S11325C0FF00E870D0D000F085FAB6E0FFFF00E02D
S11325D07F7F0F00CC08FF1F5402FF1F00FEFFFF88
S11325E0CA02FF1FF13900009DF8030080B30128DF
S11325F002D07528E9D18CE09DF80400CA2821D0C6
S1132600CB2817D0CC2802D0DD28DED121E000254C
S1132610444604222946F648C8F81850FEF7A3FA9F
S1132620F3486561012200211E38E561FEF79BFA3B
S1132630F0A004E000210120FEF7EBFFF0A0FEF77C
S11326400EF97AE000210220FEF7E3FFF0A0F6E79E
S113265002E0FFF706FD70E09DF8040004286CD149
S11326600026EF4C3746354632463146304601F0B7
S1132670F9F810212078E52805D0E07A0F2804D055
S113268010F00A0F01D0002710E067B115F1200502
S1132690B1EB500F0AD100F0FE00E0720320A076E7
S11326A0602D07D808E027462025F1E72034E1E72C
S11326B0203D2037202DFBD8CD4CD9480C3400EBDD
S11326C0862154F82600202201F0CCF854F8260084
S11326D02A463946203001F0C5F8241F0BE0202299
S11326E0002121A8FEF73FFA54F8260020222844AE
S11326F021A901F0B7F82035802DF0D3002211462E
S1132700104601F0AFF8022149F8261001F0B7F89D
S113271013E09DF804200DF105012098FEF710F850
S11327209DF80500FE2808D1BEA0FEF798F8B04831
S1132730012211461E38FEF716FA05226946209832
S1132740FDF7FEFF00287FF44FAF44466078FEF7A4
S113275006F8002822D0A06930B3E069C0F5007102
S11327608AB2B44901446078FDF7EAFFA169091A05
S1132770A161E2691044E061584512DB2269AD4968
S1132780501C2061E078FFF740FD0020E061A06963
S1132790002808D004217520FEF78AFB29B0BDE883
S11327A0F08F0029D2D1D8E0802269466078FDF705
S11327B0C7FF8F4F042244373D46381D01A9FDF75A
S11327C094FE00262E726E72AE72EE722E7301218A
S11327D06078FDF7E7FF9DF80D00E0705AF820508F
S11327E09DF80F00032805D08D4812229249123813
S11327F0FDF77BFE9DF80C0000069DF80F0071D5D7
S1132800232872D009DC1A2824D022DC03286BD0B8
S113281004281ED012281CD10EE02E2819D004DC66
S1132820252844D0282814D126E02F2811D0552853
S11328300FD0A8280DD11FE09DF8100020A9400951
S113284000F0CDF8010002D0BDF8802010E0012096
S1132850387382E0784904222C3920A8FDF745FE1C
S1132860287EC00602D580208DF88200042263E011
S11328706078FDF726FF70E0DDF811109DF8142054
S113288009BA21F0FF0111432161A82806D0BDF83F
S1132890160040BA6061FFF7E4FB57E7DDF8150066
S11328A09DF8181000BA20F0FF000843F2E72869E9
S11328B08DF884608DF88560298D401E090A8DF895
S11328C0861095F828108DF88710010E8DF8801069
S11328D0010C8DF88110010A8DF882108DF88300A7
S11328E0082229E02EE000E028E0BDF81600524955
S11328F046BA0C22123120A8FDF7F7FD288B10F000
S1132900880F15D0800601D5022000E001208DF843
S11329108800287C8DF88700288A000A8DF88600B4
S11329202869000C8DF885002869000E8DF8840054
S11329300C2E00D90C26324620A999E738491222D8
S1132940123995E720B12A280ED0AA2805D10BE028
S1132950287E10F0880F3FF47AAF25490D224431C8
S11329606078FDF7AEFEF1E6DDF811109DF8142055
S113297009BA21F0FF0111432161AA2809D0BDF849
S1132980160040BA4002A0611949E27841F82200D9
S1132990DCE6DDF815009DF8181000BA20F0FF0001
S11329A00843EFE71221018023481E307047104985
S11329B02039C96821B1202101801F483030704777
S11329C000207047052801D900207047084A2C329E
S11329D052F820301B780B8052F82000704708B161
S11329E00020704709B12420088013482438704718
S11329F03C02FF1F5553422052657365740A0D0053
S1132A005553422053757370656E6465640A0D00F6
S1132A1055534220526573756D650A0D0000000020
S1132A20CA02FF1F456E756D6572617465640D0A97
S1132A3000000000200BFF1F213A000010B50446DF
S1132A406B4850F82410083850F82400091A00F094
S1132A50F1FE67490020083141F8240010BD0178D7
S1132A60427841EA02218278C07841EA024141EA8F
S1132A700060704701EB4102D3085E4A02EB40223A
S1132A8052F8230001F0070301EB4101C90802EBEE
S1132A908101082B07D2DFE803F0040709101214A0
S1132AA0191BC0F30B007047000BFAE70979000EFD
S1132AB001F00F0140EA012070470009F1E7000C22
S1132AC0EFE70979000F40EA01107047000AE8E7D0
S1132AD0000D704770B586B000200124ADF80600E3
S1132AE08DF80E00ADF804008DF81040022542491F
S1132AF08DF81150752000918DF81200ADF80A4040
S1132B006A4600210520FDF766FD394E6A46303ECF
S1132B10002130704020ADF80C003848009060026D
S1132B20ADF804004000ADF8060040088DF80F40F1
S1132B30ADF808008DF80E500520FDF74CFD7070BF
S1132B4006B070BDFEB50446002047E02278FF2A97
S1132B5043D0002220461546294B3AE00678AEB30E
S1132B60C67A082E33D00F2E31D0202E06D1067F00
S1132B70D0F81D7046EA07269E4228D90A4600214D
S1132B802046FDF7F0FF0820E0720B221DA120462D
S1132B90FDF7ABFC48F28000ADF804500090ADF8AE
S1132BA00650694602952046FFF79AFC4FF404301C
S1132BB02034009069462046FFF792FC2020E07202
S1132BC00B2213A12046FDF790FC04E0FFE7203020
S1132BD020328A42C2DB0220FEBD401C8842B5DBA3
S1132BE00A4600212046FDF7BEFF0020FEBD00007E
S1132BF04C02FF1F2009FF1F492400006B23000023
S1132C00808F010055504C4F41445F4449534B0061
S1132C104669726D7761726562696E0010B54FF432
S1132C200041D1F88020521C3BD0D1F88420521CA2
S1132C3037D00968491C34D068B300F04DF94FF01F
S1132C40E021002041F8100F2C48426B2C4B1A4015
S1132C504263826A22F440628262C26A22F0010202
S1132C60C262026B274B1A4002632748426842F053
S1132C7080724260026822F0004202609814C1F837
S1132C807001C1F87401C1F87801C1F87002C1F88B
S1132C907402C1F87802BDE8104048F2800000F0E8
S1132CA05FBE10BD2DE9F04118480027D0F8900010
S1132CB042061748078003D50020FFF7AFFF00E066
S1132CC001274FF4004634464FF4043511A0FDF7B4
S1132CD0C6FD2078FF2802D1641CAC42F9D3AC4273
S1132CE00AD2002C08D0002F06D13046BDE8F041AE
S1132CF04FF4C83100F09EBDBDE8F081008004406F
S1132D00FFC3FBFFF9FFFDFF0070044000F00F401C
S1132D10FEFF02200D0A436865636B696E672046F7
S1132D206C6173682E2E2E00FE49002008604FF05F
S1132D30E0206FF07F4141618161016905210161FA
S1132D40FFF7B0FFF848F94A416883681030194426
S1132D509042FAD1F648FDF761FFF5490622891F32
S1132D6001F11000FDF7BCFFFEF75FF8FCE77047C8
S1132D7030B5F04C012304EB0030002A03DAEE4CAA
S1132D80224003240BE040F2777408E0194204D097
S1132D900568A5431543056099435B00001D0029A0
S1132DA0F4D130BD30B5E54DA86B40F40060A863A4
S1132DB0E34CD4F8940020F04000C4F89400E249B5
S1132DC0E048C1F88000A86B40F40070A863606913
S1132DD020F010006061D749DC48C1F88000206908
S1132DE04CF22052C306DA484DF62811C281C18143
S1132DF007D54FF4C871C1800021818040F2D11100
S1132E0001E04FF4E9710180A86B40F40050A8631D
S1132E104FF4A2724FF080610420FFF7A9FFD4F8A9
S1132E20000140F08060C4F80001D4F8140140F0BF
S1132E308060C4F81401C748A0214170A821017022
S1132E408179C906FCD48179C1F381010229FAD1BF
S1132E50332101715821417181798906FCD5817929
S1132E604906FCD54FF0927169642821017081797B
S1132E70C1F381010329FAD1B748B8498160C1601F
S1132E8001614161816101638163C162B449086088
S1132E90B3488030016841F47001016030BD10B561
S1132EA0FFF780FFBDE81040FDF7AEB810B500B9DC
S1132EB001204FF0E0210A698B69783B04E00C693A
S1132EC0E40301D50B6902E08A699A42F7D8A2F1BA
S1132ED07803401EF8D110BD72B6A2480168491C9F
S1132EE0016070479F480168491E016000D162B6C5
S1132EF0704730B59A4B9D4D9B4C1B68403309017C
S1132F0043F820202954C11700EBD1614A1121F064
S1132F101F01411A0120884044F8220030BD904925
S1132F2010B5091F4FF000700860FFF7D5FFFEF7DA
S1132F306BF8BDE81040D5E787488D49C1634FF071
S1132F40E0208C4941618161854918310A6842F069
S1132F5070420A600721016170477D4A00B51088FC
S1132F60C00709D0FFF7B8FF4AF2026090814BF224
S1132F7080409081FFF7B6FF71494FF08060C1F83F
S1132F800C0100BD2DE9F047DFF8D891074600EBAE
S1132F904708D9F80800089D00EB88008860007A8B
S1132FA01E4694460C46400604D405F110006060A9
S1132FB0001D03E005F118006060001DE060FFF7EC
S1132FC08BFF23463A4660467168FEF7F5FB0128FD
S1132FD019D0032802D004282CD119E0A068616814
S1132FE0406840F080000860A068416881F04001BA
S1132FF04160A068816881F040018160306840F0E0
S11330008000306035E0FFF76DFF0120BDE8F087F8
S11330104FF0840AD7B13846FEF737FED9F80410CA
S113302001EB40120821C2F810A0C2F818A000BF9A
S1133030FEF71EFED9F808104F4B01EB88022068FA
S113304092681A40104320603FB10CE0C5F810A00C
S113305008213846C5F818A0EAE7484A1268D200A1
S113306001D580F0400040F080003060226841F8D3
S11330702820FFF737FF0020C8E710B5394C20F0AF
S113308080033F4A616802EB830201EB43110006AF
S113309010D503EB4300A36803EB8000436823F0DF
S11330A040034360002008618861107820F002002A
S11330B0107010BD086820F004000860886820F0D3
S11330C00400886010BD70B52D4C3320C03C04F85A
S11330D0800F14F8140F40F00200207014F8100C44
S11330E020F0300004F8100C1E4881688A6822F031
S11330F040028A6080220A60217821F0020104F8EB
S1133100041B002504F8285B012104F80319E57168
S1133110E572E572E574E575E576E57784F82350A4
S113312030E00000008000407C0000009C000000B3
S1133130B23A0000009004408BF8FF7F0080044006
S113314000F00F400301400000B0044003011000F0
S113315000200540004006400000FF1F6F2D0000C6
S113316008ED00E09002FF1F00E100E000E400E051
S11331701F2F00007F8D5B000800FF03200DFF1F41
S1133180C020074084F8275084F82B5084F82F502F
S1133190E57284F8375084F83B5084F83F50BD3CC6
S11331A094F8C0104907FBD44068FE4900228160AE
S11331B0FC49FD4B4031016011460420FEF7FCFA46
S11331C0F94885750D2084F8C00070BD10B5B0F1C4
S11331D0FF3F09D0F4491C3110B101280AD101E0A4
S11331E0086810BD486810BDEF480C2200211C304F
S11331F0FDF7B9FC002010BD2DE9FE4FDFF8A893C0
S11332004FF0300809F11C094FF0000AE64DDFF8D1
S11332109CB3E74EE74CB0E037F008004FD0FFF71F
S11332205BFEF80702D00020FFF74DFFB80720D55A
S113323094F88800C00604D5D9F80810491CC9F8C8
S1133240081094F88800400704D5D9F80410491CE4
S1133250C9F8041094F88800800704D5D9F8001040
S1133260491CC9F80010162084F88800022084F84C
S11332708000F8060DD584F8808094F8840040F02E
S1133280200084F8840000231A4619460520FEF71E
S113329093FAB8060DD584F8808094F8840020F061
S11332A0200084F8840000231A4619460620FEF7FD
S11332B083FAFFF717FE27F0080084F88000380728
S11332C05BD594F890007168070994F8902001EB9D
S11332D04710120724D594F8941009070DD4B16847
S11332E007EB470201EB8201A960097A490604D47D
S11332F000F110011430696003E000F118011C3082
S11333006960E860FFF7E8FDA74B3A460021032017
S1133310FEF752FAFFF7E6FDA87D84F8980029E04D
S11333202A6802F0805CC5F800C094F89020520727
S113333009D594F8942000F10803120706D44CF040
S113334040022A6002E094F8942003461A1D2A6180
S11333501A68C2F30942AA821A7802F03C02042ACB
S113336014D0342A41D08421016181610821384676
S1133370FEF77EFC082084F8800094F8807094F8AE
S1133380840007407FF448AFBDE8FE8F07EB470198
S11333900191B26802EB8101097A090705D5019907
S11333A012F8211001F0800100E08021029104EB69
S11333B0870191F8C0100090C90601D5012200E0F0
S11333C0022279493846FFF7DDFD02980199002869
S11333D0B06850F8211002D021F0800201E041F0E1
S11333E08002019940F82120C4E7C0F810A0C0F879
S11333F018A02A78D6F808C0520607EB47020CEB4F
S11334008202926802EA0B0206D40A6042F0C00209
S11334108A60C5F800A005E08A6042F0C0020A6034
S11334206549296007EB47010191D6F808C0482295
S11334300CEB81014A60009000225B493846FFF79B
S1133440A1FD012808D00199B06850F8211041F07D
S11334508002019940F8212094F8940020F0200083
S113346084F8940086E7534A0B4610B502EB8001BA
S113347091F8C010490701D4012010BD4C4C61687B
S113348001EB4012A16800EB400001EB80041868D6
S11334908460FFF721FD207A400603D402F1100076
S11334A0143202E002F118001C320178090603D537
S11334B0FFF718FD022010BD196848601868C26043
S11334C0FFF710FD002010BD2DE9F05F384D394C99
S11334D00646C034686804EB810700EB4114387871
S11334E090460A9A20F00C004FF0480A87F8000032
S11334F05FEA407CFCD40020A0612061A060AB4660
S11335002060AD6801EB410905EB8901FF2E88605D
S113351045F82900274D11D095F884C04CF0100CC3
S113352085F884C026F08005012D0FD008254D6054
S11335300525310647D4616869B122E015F8841F76
S113354021F0300129703870BDE8F09F44254FF018
S1133550000A4860EDE7434500D9984692F82210E6
S1133560490606D59168888208688860606040448E
S113357006E04046FDF765FB60604046FDF761FBF1
S1133580E0606FF07C4101EA084040EA0A0040F044
S1133590800120F04000A16040F0800145F0080562
S11335A021600BE088000800200DFF1F0800FF03C6
S11335B09002FF1F0020074040000010DBF80820A5
S11335C002EB8901886036F0800005D045F01005D3
S11335D0300601D425F004053D70B5E7F8B5D04DAB
S11335E000EB4006696801EB4014A96811F8261045
S11335F0490601D5002701E04027083421680A065E
S113360001D50120F8BDC1F3094200210091012335
S11336106168FEF73DF8012812D0A968C14A01EBA0
S1133620860080681040384340F08002226011F820
S1133630262002F08002024341F826200020F8BD33
S11336400220F8BD2DE9F047487C0E46401CC7B265
S1133650B548016841F480710160B448416841F0A3
S1133660807141600168426821F0804142F000723B
S1133670426041F000410160327CAD480021012AE2
S11336804DD0826B42F400528263AA4B4FF4E06245
S11336909A66A94A88461160416B41F480214163CE
S11336A0102F00D9102707EB47008000FDF7C9FA57
S11336B09B4DA24CA86094F80C0140F0800084F863
S11336C00C0100BF94F80C010006FBD4B07A4FF053
S11336D0800941074FF0020003D484F8440184F8C0
S11336E0409104F8940F78014FF40071FDF7C5FA86
S11336F0010A68602172010C2177000E84F8200011
S113370084F8048004F82C8B04F8C08994F8C00071
S11337104007FBD4B07A400707D5402706E042684B
S113372042F4E02242608164B3E708273846FDF79B
S113373088FA696848603846FDF783FA0146686884
S1133740C160882141EA0741816041F04001016084
S1133750082040EA0741A868C0F8009081600D2065
S113376084F8C000ED202074FF2084F88000BF207E
S113377084F88800724A04213520FFF7BAFBB07A36
S1133780400713D484F800818B2084F88400062039
S113379084F88C00012084F89400B07AC00705D026
S11337A0402084F80C01102084F808012EE42DE94F
S11337B0F0415B4B0546D86880B903F11C04614EA7
S11337C0002024F0010400BF34F8027B26F81070B6
S11337D0401C1E28F8DB5B48401CD8605A4C2078FB
S11337E00006FCD5207810F0700F01D070202070F6
S11337F0E571072D01D0092D0AD1080CA071080A22
S113380060712171072D03D11068A0605068E060D9
S1133810FFF762FBD96820468847FFF763FB2078EF
S113382010F0310000D00120BDE8F08100221146E3
S11338304420BCE770B5040B2403001B45184FF467
S11338408056002221460920FFF7B1FF08B101206C
S113385070BDB54204D904F58054A5F58055F0E750
S1133860002070BD0EB5CDE90002684600F00BF8EB
S11338700EBD0B4601461846FCF737BE7047344967
S113388032480860FEE72DE9F05F0F0024494568DF
S11338902AD0006820F0070200F007060A61DFF86A
S11338A080A08B460AF1140A0AF10809C6F108043B
S11338B0AC4200D92C460AEB060080462246394623
S11338C0FCF713FE2D1B08EB0400274448451ED3C8
S11338D0134A002614325C460720DBF81010FFF769
S11338E066FF50B1701E2FE6086910F0070F15D05F
S11338F020F0070008260861D1E720690822083073
S113390020610748FF211430FDF72DF904E0DBF8AE
S113391010102144CBF81010002DC7D1002013E65D
S11339209002FF1F0800FF0300F0014000700440F4
S11339300080044000D0044000D000400020074034
S1133940F9310000480DFF1F000002400400FA0591
S11339500CED00E00148014A70470000E80DFF1F2C
S1133960D0F800D0D0F804F080F31188704700003C
S1133970754600F02BF8AE4605006946534620F024
S11339800700854618B020B5FFF7E4FFBDE82040E6
S11339904FF000064FF000074FF000084FF0000B07
S11339A021F00701AC46ACE8C009ACE8C009ACE8BA
S11339B0C009ACE8C0098D46704710B50446AFF3A2
S11339C000802046BDE81040FCF731BD0048704738
S11339D0840DFF1F01491820ABBEFEE7260002003C
S11339E070474FF04070E1EE100A7047000001008C
S11339F0005553424303000000F8FFFF000080001D
S1133A00011F000000755461736B657220555342A9
S1133A10204D5344204C6F616465722020312E3058
S1133A2030800000000000000A00000000000000D8
S1133A30000000000000080001F80003000200126A
S1133A40011001000000082504FC03000101020329
S1133A500109022000010104803209040000020867
S1133A6006500507050102400000070582024000D8
S1133A7000040309040A034D0061006E0075001080
S1133A80034D0079002000500072006F0064000AAA
S1133A900330003000300031000A0343006F006E31
S1133AA0006600080349006E007400000157487561
S1133AB00000010000C0000000000000F03A000017
S1133AC05D1000000000000002000100EC3A00005C
S1133AD0232500002500FFFF000004000000000073
S1133AE00000000000000000000000007573620088
S10B3AF057646F670000000039
S9032D29A6
